:10000000382100205D0B0000590B0000590B000047
:1000100000000000000000000000000000000000E0
:10002000000000000000000000000000590B00006C
:100030000000000000000000590B0000590B0000F8
:10004000590B0000590B0000590B0000590B000020
:10005000590B0000590B000075020000590B0000FD
:10006000590B0000590B0000590B0000590B000000
:10007000590B00000000000000000000590B0000B8
:10008000590B0000590B00006906000079060000BA
:1000900089060000000000000000000015010000BB
:1000A000590B0000D1010000590B0000590B000052
:1000B0000000000010B5064C2378002B07D1054B3B
:1000C000002B02D0044800E000BF0123237010BDC4
:1000D00010000020000000006C0E000008B5084B66
:1000E000002B03D00748084900E000BF0748036819
:1000F000002B00D108BD064B002BFBD09847F9E739
:10010000000000006C0E0000140000206C0E0000C7
:100110000000000038B52D4B1C6823681D7EEDB231
:10012000EA0735D5E27ED20732D5A27ED2072FD597
:1001300001221A762268537E5BB2002BFBDB6169D9
:100140008B1C6361538B9BB20B80238B013B9BB257
:100150002383002B11D0637F002B19D02268537E9C
:100160005BB2002BFBDB117B02230B431373226872
:10017000537E5BB2002BFBDB0AE0237F052B07D10C
:1001800000232377013322689375201CA3689847C6
:100190006B070BD5042322681376E37E9B0705D5F6
:1001A000A37E9B0702D5201CE3689847AB070BD5BD
:1001B000022322681376E37E5B0705D5A37E5B07E7
:1001C00002D52369201C984738BDC046B4000020E2
:1001D00038B5264B1C682568AB79DB070AD50123A7
:1001E000AB71231C143305D0637C002B02D000209C
:1001F000A3699847AB799B0737D50223AB71A389D5
:100200009BB2002B28D0E3899BB25A1C92B2E281A8
:100210005B00A268944663441B889BB2AB81A389B0
:10022000013B9BB2A381A3899BB2002B14D1002276
:100230002033E2541E3B2B71AB71802189047E3345
:100240000B4AD150231C14330FD0A37C002B06D0B3
:100250000020E369984702E0231C143305D0237C77
:10026000002B02D063690020984738BDB8000020F9
:1002700000E100E010B5264B9847264A138C0F2169
:100280000B409B002448185803780B4030315354DE
:100290004E23D25CD2B203781B012049C918498889
:1002A0001F4CE3185B88CB1A4361D3070DD501219E
:1002B0004E23184AD1543E3B4374037CDB0723D5BD
:1002C0004368002B20D098471EE093070DD50221EC
:1002D0004E23104AD15400234374037C9B0713D54B
:1002E0008368002B10D098470EE053070CD50421EB
:1002F0004E23084AD154483B4374037C5B0703D523
:10030000C368002B00D09847064B984710BDC046E5
:100310009D0600000048004180000020C000002031
:1003200030000020DD06000030B585B001AA0B4B7F
:1003300032CB32C2019B83420AD0029B834205D05A
:100340000023039A824205D1023302E0012300E038
:100350000023DBB2181C05B030BDC0460C0E0000F7
:10036000F0B54F464646C0B487B0041C0E1C9046FC
:10037000081C914B98478146904D291C0C3105A8CB
:1003800003228F4FB847291C103103A80622B84713
:100390000023A360E36023616361237663764B46A9
:1003A0009A00884BD450266043469B78082B04D192
:1003B00017204A46D20700D4F9E02371338805207C
:1003C000DB0700D5F3E0F37B1730DB0600D5EEE06A
:1003D00033889B0700D5EAE043461B7C002B0CD0FA
:1003E00002A901238B700022CA704246127E0A7055
:1003F0004B704346187D744B984743461B7F002B38
:100400000DD002A901238B700022CA704246526AA5
:100410000A704B7043461B6AD8B26B4B98476B49C6
:100420000B6A4A46520003A8125A13430B62434612
:100430009B78082B06D10B6A4A4601325200125AA9
:1004400013430B6201A943461B780B7005AB4A4668
:100450009D5C281C5E4B9847281C5E4B9847434682
:1004600098881B8903434246907992781043184339
:1004700043465B78002B02D080231B011843216880
:100480007F22CB7B9343FCD130804346587B431E75
:100490009841800043469B7B002B01D001231843E9
:1004A00021687F22CB7B9343FCD1FF33337100283B
:1004B00005D021687F22CB7B9343FCD170714346EA
:1004C000987ADB7A002B01D01023184343461B7B1C
:1004D000002B01D02023184321687F22CB7B93433C
:1004E000FCD1B07122687F21D37B8B43FCD123796F
:1004F000042B05D0082B41D01720002B57D124E026
:100500007F21D37B8B43FCD128334246D35C3374A9
:1005100021687F22CB7B9343FCD129334246D35CB5
:10052000337521687F22CB7B9343FCD12A3342462B
:10053000D35C337621687F22CB7B9343FCD12B3372
:100540004246D35C7376002031E07F21D37B8B431E
:10055000FCD143461B8D338221687F22CB7B9343A2
:10056000FCD143465B8D338321687F22CB7B934351
:10057000FCD143469B8D7383002018E07F21D37B01
:100580008B43FCD143469B6A336121687F22CB7B3E
:100590009343FCD14346DB6AB36121687F22CB7B66
:1005A0009343FCD143461B6BF3610020FFE707B088
:1005B0000CBC90469946F0BD290300000C0E0000CB
:1005C000F90D000010010020F90A000000040040AD
:1005D000350A0000A9090000931C9B001950022A4B
:1005E00004D1027E1023134303760CE0032A04D1C6
:1005F000027E20231343037605E0012393401A1C57
:10060000037E1A43027600207047C04638B580004A
:10061000144BC5582B689C7B2B7E1C406B7E1C406A
:10062000E30705D5281CAB68984701232A68937314
:10063000A30705D5281CEB68984702232A68937303
:10064000E30605D5281C2B69984710232A68937365
:10065000A30605D5281C6B6998472B6820229A733E
:1006600038BDC0461001002008B50020014B984756
:1006700008BDC0460D06000008B50120014B984793
:1006800008BDC0460D06000008B50220014B984782
:1006900008BDC0460D0600007047C0460C4B1B68E5
:1006A000002B10D1EFF31083002B09D172B6BFF3EA
:1006B0005F8F0022074B1A700132074B1A7002E05D
:1006C0000022054B1A70024A136801331360704709
:1006D000940000200000002098000020084B1A68B9
:1006E000013A1A601B68002B09D1064B1B78002BBE
:1006F00005D00122044B1A70BFF35F8F62B67047BA
:1007000094000020980000200000002070B50C4CE0
:10071000236A0178857842780120024092014026C0
:10072000B3431343021C2A40D2017F308343134357
:1007300003220A40120203490B401343236270BD97
:1007400000080040FFFCFFFF082803D88000254B6D
:100750001B589F46172044E0234A116A02230B438B
:10076000136200203DE0204A916902230B4393610C
:10077000002036E01C4A118A02230B43138200201A
:100780002FE0194A918A02230B439382002028E02C
:1007900016490B68022213430B60134B9A84191CF1
:1007A0000E32CB681A42FCD0104A91680E4BD962C7
:1007B00052689A6200229A84191C1032CB681A423D
:1007C000FCD00A4B1B689BB2074A9384002008E0C8
:1007D00005494422885C022303438B54002000E037
:1007E00000207047240E0000000800409C000020FC
:1007F00030B585B0C222D2001A4B9A601A4A5368AB
:100800001E218B43536001236A4613700024174D49
:10081000E0B26946A8470134252CF9D103A8002489
:100820004470012585700470114B98470620114BC8
:100830009847114B9847114B1C725C729C72DC728A
:1008400001956B465C7006236A46137014725472ED
:10085000002069460A4B984700200A4B984705B08C
:1008600030BDC0460008004000400041350A00008D
:100870000D0700004907000089080000000400403F
:10088000AD08000065090000064A916908230B4382
:1008900093610122044B1A70191C0B781342FCD18E
:1008A0007047C04600040040000C004070B5061CB4
:1008B000041C0D782D0205434B78002B02D08023B9
:1008C000DB021D434B7A002B02D080231B031D4308
:1008D0004868012818D9431E184210D1022806D9A9
:1008E0000223002201325B009842FBD800E0002284
:1008F00012023243141C80235B031D4304E00402F4
:10090000344380239B021D430B7A002B02D08023AB
:100910009B031D430F4A53785BB2002BFBDB0E4B4E
:1009200098470E4B1E700B4A53785BB2002BFBDBD3
:10093000084B9C601A1C53785BB2002BFBDB054A0A
:10094000516880235B020B401D435560044B984760
:1009500070BDC046000C00409D060000080C004021
:10096000DD06000010B5041C0B4A53785BB2002B67
:10097000FBDB0A4B98470A4B1C70074A53785BB263
:10098000002BFBDB044A5368802149020B43536070
:10099000044B984710BDC046000C00409D06000067
:1009A000040C0040DD06000010B5041C064B9847FF
:1009B000064B1C70064A51888023DB010B43538091
:1009C000044B984710BDC0469D060000020C004035
:1009D000000C0040DD06000010B5041C0F4B9847CA
:1009E0000F4B1C700F4B5A881205100F59880E4A76
:1009F0000A405A8059880D4A0A405A80191C8022A0
:100A0000D2014B881342FCD1064902024888064BAA
:100A1000034013434B80064B984710BD9D060000D2
:100A2000020C0040000C0040FFF0FFFFFFBFFFFF83
:100A3000DD06000010B50C7824020443024B9847F1
:100A4000A4B2024B5C8010BDD9090000000C00402C
:100A500030B5D378002B1ED11478802C04D0240616
:100A600080235B021C4300E0002453780225AB4343
:100A70000AD19378002B03D180239B021C4302E010
:100A8000C023DB021C4341605378013B012B12D889
:100A9000184B1C400FE041600B041B0CA024E40524
:100AA000234383620B0CD024240623438362D37830
:100AB000002B18D01CE00B041B0CA025ED052B43CC
:100AC000234383620B0CD0252D062B4323438362E3
:100AD000D378002B0CD1630305D59378012B01D17A
:100AE000816100E041615378013B012B00D88160B6
:100AF00030BDC046FFFFFBFF08B5031C0A1CC1093F
:100B00000020002904D15809C00105498C466044E1
:100B10001F210B401E399940024B984708BDC04623
:100B200000440041510A00007047C04608B5054B1B
:100B30009847054B9847054B9847054B9847054BF9
:100B4000984708BDF107000099060000290B000036
:100B5000290B0000290B0000FEE7C04670B52E4BA4
:100B60002E4A9A4203D02E4B2B4A9A4204D32D4B45
:100B70002D4A9A4210D31EE02C4A294B03339B1A6C
:100B80009B0801339B000022234824498C58845041
:100B900004329A42FAD1EAE7254A224B03339B1AE0
:100BA0009B0801339B0000221F480021141821607C
:100BB00004329A42FAD11F4AFF211F4B8B439360A4
:100BC000FD3990235B001D4AD1501D48C378032492
:100BD000A34302221343C370C3780C26B3430821F6
:100BE0000B43C370174B987B3025A843051C20206E
:100BF00028439873987BB04301439973997BA14331
:100C00000A439A73104A516880230B4353600F4B79
:100C100098470F4B9847FEE7000000206C0E00003D
:100C200004000020380100201000002004000020F3
:100C30001400002000ED00E0000000000070004102
:100C4000005000410048004100400041AD0D00004F
:100C5000750D00008022D201014BDA617047C04659
:100C60000044004110B5054B8021C9019960402026
:100C70001C5C022222431A54596110BD00440041F9
:100C800000B585B001A900234B700B724B72043381
:100C90000B707C334B600120034B98470120034BC2
:100CA000984705B000BDC046AD08000065090000CA
:100CB00010B58EB001AA002300219371138100208A
:100CC00050709172D1721173917351731174536199
:100CD00093611177136253621385538593850433AF
:100CE0009370033B1370A023DB009380FF21292323
:100CF000D154F5390133D154074C201C0749084B16
:100D0000984722687F21D37B8B43FCD11188023323
:100D10000B4313800EB010BD1C010020002C0042BC
:100D20006103000010B50D4C201C0D4902220D4B33
:100D3000984720680C4B98470C4B1B5C1F221340B4
:100D40001E3A9A40131C0A4A1360627E1023134312
:100D50006376236810225A7310BDC0461C01002020
:100D6000550C0000D905000029030000480E0000C2
:100D700000E100E008B5074B9847074B9847074B41
:100D80009847074B9847074B98478022D201064B5C
:100D90009A61FEE72D0B0000810C0000650C00003D
:100DA000B10C0000250D0000004400410E4B70B551
:100DB00000251E1C0D4CE41AA410A54204D0AB0063
:100DC000F35898470135F8E700F040F8084B002544
:100DD0001E1C084CE41AA410A54204D0AB00F35822
:100DE00098470135F8E770BD580E0000580E000016
:100DF000580E00005C0E0000002310B5934203D093
:100E0000CC5CC4540133F9E710BD0000002C004253
:100E100000300042003400421B1C1C00000800107F
:100E20000020000074070000540700005407000071
:100E3000E007000066070000820700005807000076
:100E400090070000D007000012131400F8B5C04648
:100E5000F8BC08BC9E467047DD000000F8B5C046EF
:0C0E6000F8BC08BC9E467047B5000000BE
:040E6C000100000081
:0400000300000B5D91
:00000001FF
